:10000000C5C20000EAC20000E8C20000E6C200006B
:10001000E4C20000E2C20000E0C20000DEC2000054
:10002000DCC20000DAC200000C94C40BD6C200008F
:10003000D4C20000D2C20000D0C20000CEC2000074
:10004000CCC20000CAC20000C8C20000C6C2000084
:10005000C4C20000C2C20000C0C200000C94B70EAF
:10006000BCC200000C94DC220C940E23B6C200002B
:10007000B4C20000B2C20000B0C20000AEC20000B4
:10008000ACC20000AAC20000A8C20000A6C20000C4
:10009000A4C20000A2C20000A0C200009EC20000D4
:1000A0009CC200009AC2000098C20000F204290518
:1000B00011050A0540054005EA044005EA0440052B
:1000C000EA04EA04EA044005EA04EA04B20CD40CA7
:1000D000C00DD40CC00D190D3B0DC00D8D0D9F0D25
:1000E000D90FDC0FCB0FCF0FD50FFD0FFD0FFD0F7D
:1000F000E00FE40FE80FEE0FF20FFD0FF80F69119C
:100100007111851177117D118D1193119B112800AB
:1001100000000001040001000000000000000001D8
:100120005847495031300000000000000000000036
:1001300000000000000022033000300030003000DA
:1001400030003700390043003600300035004300EE
:1001500035003700420036000000580352006F009F
:1001600063006B002000420061006E00640020000C
:100170005700690072006500640020004C006500B3
:1001800067006100630079002000410064006100A5
:100190007000740065007200200066006F0072003D
:1001A0002000580062006F00780020004F006E00B1
:1001B000650000003C0350006500720066006F009F
:1001C00072006D0061006E00630065002000440055
:1001D00065007300690067006E0065006400200020
:1001E000500072006F0064007500630074007300BB
:1001F00000000403090412034D005300460054009C
:1002000031003000300090000000B203580062005E
:100210006F007800200053006500630075007200D5
:1002200069007400790020004D00650074006800CA
:100230006F006400200033002C0020005600650091
:100240007200730069006F006E00200031002E0004
:10025000300030002C002000A900200032003000C7
:100260003000350020004D006900630072006F000F
:1002700073006F0066007400200043006F0072007E
:1002800070006F0072006100740069006F006E0002
:100290002E00200041006C006C00200072006900FC
:1002A000670068007400730020007200650073002E
:1002B000650072007600650064002E0000000902EF
:1002C0006000030100A0FA0904000002FF47D0000B
:1002D00007050203400004070581034000040904E8
:1002E000010000FFFFD0000904010102FFFFD00060
:1002F00007050401E4000107058301E40001090486
:10030000020000FFFFD0000904020102FFFFD0003D
:1003100007050602400000070585024000001201A3
:100320000002FFFFFF406F0E750100020102030192
:10033000070605040100080A0B0C0D090000000265
:1003400000090F0000030401000C00000000000081
:10035000000000000000000000000004080201107E
:1003600040804010204080408008020401804020EE
:1003700010020110801020404020040404040403F3
:100380000405020202020403020202020606060635
:1003900006060404020202040400000000230026F2
:1003A0000029002C002F0000000000250028002B51
:1003B000002E00310000000000240027002A002D3C
:1003C0000030000D0A58626F78204F6E6520436F31
:1003D0006E74726F6C6C657220446973636F6E6EBD
:1003E00065637465640D0A000D0A58626F78204FCA
:1003F0006E6520496E6974204661696C65642C20C5
:100400006572726F7220636F64653A20000D0A583E
:10041000626F78204F6E6520436F6E74726F6C6CE4
:10042000657220436F6E6E65637465640D0A000D1E
:100430000A004E433A000D0A736574416464723ACF
:1004400020000D0A6570696E666F206973206E75F5
:100450006C6C000D0A41646472657373206E6F7476
:1004600020666F756E64000D0A4164647265737373
:1004700020696E2075736500000100080002000409
:100480000020001000400080000000000100020079
:100490002000100040008000040008000D0A002029
:1004A0005049443A20000D0A556E6B6E6F776E20EE
:1004B00044657669636520436F6E6E656374656439
:1004C000202D205649443A20000D0A736574436F6D
:1004D0006E6620000D0A676574436F6E6620000D1E
:1004E0000A73657444657654626C456E20000D0A8B
:1004F000676574446576446573637220000D0A0075
:10050000285553423A3A496E5472616E7366657269
:1005100029206570207265717565737465642000AB
:100520000D0A00285553423A3A496E5472616E736F
:1005300066657229206164647220726571756573E5
:1005400074656420000D0A00285553423A3A496EFA
:100550005472616E736665722920536574416464D8
:1005600072657373204661696C656420004275662C
:1005700066657220706F696E746572206973204EB3
:10058000554C4C210D0A0000C908332311241FBE0D
:10059000CFEFDAE0DEBFCDBF13E0A0E0B1E0E0EAEC
:1005A000FFE402C005900D92AA33B107D9F725E008
:1005B000AAE3B3E001C01D92AD3EB207E1F712E03D
:1005C000C6ECD2E004C02197FE010E94D924C43CAD
:1005D000D107C9F74ED50C94CE2712CDFB0120814F
:1005E000243090F020913205233021F443E451E08F
:1005F0000C943611243041F4FC012081203221F486
:1006000043E451E00C94AB100895809103018630CF
:10061000D1F480910101909102010697A1F480919B
:100620000601823081F480910701813061F480916C
:100630000801811108C061E08DE00E943A1084E059
:10064000809332050895409101015091020163E0C9
:1006500071E08DE094E00E94BD15882329F085E8C3
:1006600094E00E941221EFCF08958091030184301D
:1006700021F08630E9F08130F9F480910C048F305C
:1006800010F010920C04E0910C04F0E0CF01880F00
:10069000991FE80FF91FE857FE4F43E451E0BF01EF
:1006A000818192810E94361181E08093000104C013
:1006B00083E080933205A9CF80910C048F5F8093F3
:1006C0000C040895CF93C1E0C093E9008091E80045
:1006D00080FF14C080914301811110C060914401DA
:1006E0007091450140E050E086E491E012D680919F
:1006F000E8008E778093E800C0934301CF9108957E
:10070000CF93DF93EC01E881F981309711F0CB961C
:1007100009958CAD823F09F493C050F5803C09F4F3
:1007200076C098F4803909F443C030F4803809F079
:10073000A4C0EC81FD8163C0803A09F45EC0803BB7
:1007400009F09BC0EA85FB855AC0803E09F442C08F
:1007500030F4803D09F091C0EE85FF855AC0803F9E
:1007600009F45EC0813F09F088C0EC89FD8978C03A
:100770008A3F21F190F4863F09F478C030F4833F3A
:1007800009F07BC0E88DF98D6BC0883FA1F0893FEF
:1007900009F073C0E8A1F9A16BC08C3FA9F088F003
:1007A0008E3FA9F08F3F09F068C0E8A5F9A560C0A9
:1007B000EE81FF8124C0EC8DFD8D5AC0EE8DFF8D42
:1007C00057C0EAA1FBA154C0ECA1FDA151C0EEA10C
:1007D000FFA14EC0E889F989309709F44EC06EAD8B
:1007E0006F7720E8629FB00111248DAD8F77682B61
:1007F00070528BADDF91CF910994E885F9853097E0
:10080000E1F14EAD6DAD8BADDF91CF910994EC85EB
:10081000FD85309791F16DAD8BADDF91CF9109944E
:10082000EA89FB89309749F16DAD7EAD613871057C
:1008300010F060E870E0CE01CF96DF91CF9109947F
:10084000EE89FF893097C9F08EAD8F7720E8829FBF
:10085000C00111242DAD2F77822BDF91CF91099408
:10086000309759F08DADDF91CF910994EA8DFB8DD2
:10087000309719F0DF91CF910994DF91CF910895CE
:10088000982F8F7C803849F0903D39F081E0903E80
:1008900031F0903C21F080E0089581E008950895C2
:1008A00087FF0AC09CE0980F923030F08D3F21F016
:1008B000803F18F4807F089580E00895DC018D91D9
:1008C0009C91DC01ED91FC910190F081E02D099467
:1008D000CF93DF93EC016D3F28F46A3F28F4683F23
:1008E00031F402C06E3F18F08AA59BA5E7DFCE0168
:1008F000DF91CF910895EF92FF920F931F93CF93C3
:10090000DF937C01C62F142FD22F613ED8F4015003
:100910000031D8F467FF19C0602F6C2BFC0182A551
:1009200093A5CCDF612F6F77F70182A593A5C6DF72
:10093000CF7EC03C51F06D2F6F77F70182A593A554
:10094000BDDF03C0683F08F0C3DFC701DF91CF916F
:100950001F910F91FF90EF900895EF92FF920F93E8
:100960001F93CF93DF93EC019AAD292F217090FF55
:1009700087C0892F8E7F09F483C0362F6CAD80E845
:10098000860F8136D0F40BAD031719F021E0311139
:1009900020E09695923031F0933041F0913009F09B
:1009A0006FC006C0222309F46BC002C0211168C0C9
:1009B0002EAD4DADCE019FDF63C0862F90E0FC01D0
:1009C000E05FF109E031F10508F05AC0EA5AFF4F43
:1009D0000C94D924CE01DF91CF911F910F91FF90FC
:1009E000EF9076CF8E01015C1F4F78018DAD9EADEB
:1009F0008138910510F080E890E0080F191FE0168B
:100A0000F10609F43DC0F70161917F018AA59BA51C
:100A100055DFF5CF1DAD63EF8AA59BA54FDF612F95
:100A200016C00EADF0E80F9F800111248DAD082B8C
:100A300062EF8AA59BA542DF602F6F778AA59BA5F1
:100A40003DDF000F012F001F110B1195602F6F77F5
:100A50000EC08DAD877020E1829FC00111241EADB4
:100A60001F70182B61EF8AA59BA528DF612F8AA52F
:100A70009BA5DF91CF911F910F91FF90EF901ECF1B
:100A8000DF91CF911F910F91FF90EF9008952F92DA
:100A90003F924F925F926F927F928F929F92AF920E
:100AA000BF92CF92DF92EF92FF920F931F93CF935B
:100AB000DF9300D000D0CDB7DEB785E894E00E9488
:100AC00012218091E405843009F044C0FBDD82E00E
:100AD0008093E9008091E80082FF3CC01A8219826D
:100AE0008091E80085FF15C0AE014F5F5F4F60E465
:100AF00070E083E091E057D410920001882319F050
:100B000089819A8102C080E490E0909302018093F1
:100B100001018091E8008B778093E80080910101CA
:100B200090910201892BB1F080910001811112C0D6
:100B300080913205823059F0833059F0813051F480
:100B400080910301843031F482E0809332058DDDA1
:100B500001C05BDD0E94D90D442443945524539475
:100B6000EE24E394F12C22E0C22ED12C30E8A32E07
:100B7000B12C43E0842E912C80E8282E309066031F
:100B800020E1231508F406C2E0916403F0916503A7
:100B900080819181DC01ED91FC910084F185E02D53
:100BA0000995892B09F4F6C1809109048E7F809301
:100BB0000904E0916403F091650380819181DC0177
:100BC000ED91FC910284F385E02D0995182F8D3F5E
:100BD00009F4E0C180916E0390916F03009709F0D2
:100BE00063C01093690300916703802F59DE48DECC
:100BF000882351F017FD08C00093690310936A031E
:100C0000F0926F03E0926E0310916903812F48DE2A
:100C1000813FB9F1B0F4803BC9F140F48039B1F1C2
:100C2000803AA1F1803809F052C030C0803D49F1CE
:100C300018F4803C31F14BC0803E41F1803F59F1C6
:100C400046C0873F41F130F4833FD9F0F8F0863F4A
:100C500029F03DC08D3F10F08E3FC8F180937603A0
:100C60001092750310927703109278035092F90353
:100C700010926F0310926E0310926D0310926C032A
:100C800025C1D0926D03C0926C0338C090926D0361
:100C900080926C0333C0B0926D03A0926C031092EB
:100CA0006703809379032AC017FF89C01D3F08F0AE
:100CB00056C0183F08F055C0103F09F04CC02091B5
:100CC0007903203F09F45CC0273F09F459C08091A3
:100CD0000904816080930904E0913C03F0913D0395
:100CE000309709F0099510926F0310926E031092DD
:100CF0006D0310926C03109267034CC120916E0338
:100D000030916F0340916C0350916D034150510934
:100D100024173507C8F0809376031F701F5F109368
:100D2000750380916A038093770310927803F092A1
:100D3000FB03E092FA0310926F0310926E0310927D
:100D40006D0310926C0319C02F5F3F4F30936F03F8
:100D500020936E031FC1173F09F4B1CF30C01E3F6F
:100D600070F110937603109277031092780310922B
:100D70007503F092FB03E092FA035092F903A6C0C8
:100D80009C012F5F3F4FFC01E65CFC4F17AFB0EFBB
:100D9000B093760320937703309378031092750312
:100DA0003093FB032093FA035092F90310926F03E0
:100DB00010926E0310926D0310926C037EC020910E
:100DC0006903FC01E65CFC4F203F11F0273F11F462
:100DD00017AF01C017A760906C0370906D0393016B
:100DE000215031098217930708F46AC00091690302
:100DF000003F11F0073F11F51091F80380EF809349
:100E0000F8038093760380E8809377031092780349
:100E10001092750380E890E09093FB038093FA03AF
:100E200081E08093F9038AE393E06ADC87EF8093A3
:100E3000790310937A0382E090E043C0802F30DD85
:100E4000182F809376031CDD882331F0802F8F705C
:100E50008F5F8093750302C01092750380916A03BF
:100E600080937703E3E06E16710419F480916B03AD
:100E700001C080E0809378037092FB036092FA03D4
:100E800010926F0310926E0310926D0310926C0318
:100E90005092F903103B71F038F4103959F0103AC0
:100EA00049F0103851F406C0103D21F0103E11F009
:100EB000103C19F40093670309C01092670306C041
:100EC000019690936F0380936E0364C080917603C4
:100ED000803929F480917803882309F4ABC080918C
:100EE00076038058813608F0A8C0809175033816C3
:100EF00009F4A3C0332009F4A0C010E0632D8AE3F5
:100F000093E02BDD112309F445C0809176038039ED
:100F100009F034CE80917803909177039C838B30D5
:100F200008F42ACECE0104960E9491108B8389305A
:100F300009F422CE15E0189FF0011124E350FB4F75
:100F40008481811119CE80E28093250510922605B7
:100F500088E080932805598245E255E0BE016F5F25
:100F60007F4FCE0103960E94581180913105816018
:100F7000809331050B81109F8001112403501B4F7A
:100F8000D80114964C923DD7F80160837183828317
:100F90009383F2CD80913205843009F053C031D76C
:100FA0004B015C010DEF14E0F12CD80114968C91EB
:100FB0001497882319F18D919D910D90BC91A02DCE
:100FC000A5019401281B390B4A0B5B0B2932310513
:100FD0004105510598F01982FB8245E255E0BE01BA
:100FE0006F5F7F4FCE0103960E945811D80114966F
:100FF0001C92809131058160809331050B5F1F4FFA
:10100000F394B8E0FB12D1CF8091310580FF1AC074
:101010000E949D10809327058CE0898343E451E072
:10102000BE016F5F7F4F85E295E00E9436111092FE
:10103000310508C02092760352CF8AE393E060DB4B
:1010400011E05CCF0F900F900F900F90DF91CF9138
:101050001F910F91FF90EF90DF90CF90BF90AF90D6
:101060009F908F907F906F905F904F903F902F90C8
:101070000895CF93DF931F92CDB7DEB70FB6F894E4
:10108000A895809160008861809360001092600054
:101090000FBE21D7789485E894E00E94B1188F3F65
:1010A00009F4FFCFE0916403F091650326E042E18B
:1010B0005AE760E070E0808191810E945424109290
:1010C0006603109268031092670310926F031092E8
:1010D0006E0310926D0310926C038FEF9FEF90934D
:1010E000710380937003909373038093720389D686
:1010F0006093FC037093FD038093FE039093FF03C2
:101100001092F903109276031092750310927703F0
:10111000109278031092FB031092FA0380917403EB
:101120008170826081608093740311D361E08DE0EF
:1011300065D760E08DE09ED781E08093320561D66F
:10114000C12CD12C760110E2809132058130F9F466
:101150009EDC57D6DC01CB018C199D09AE09BF0975
:10116000813D9740A105B10578F380911104882352
:1011700059F3198343E451E0BE016F5F7F4F8FE75E
:1011800092E00E9436113DD66B017C01DDCF7FDC01
:10119000FECF83E495E090930B0480930A041092B1
:1011A0003B0310923A0310923D0310923C031092BD
:1011B0003F0310923E03109241031092400310929D
:1011C000430310924203109245031092440310927D
:1011D000470310924603109249031092480310925D
:1011E0004B0310924A0310924D0310924C0310923D
:1011F0004F0310924E03109251031092500310921D
:1012000053031092520310925503109254031092FC
:1012100057031092560310925903109258031092DC
:101220005B0310925A0310925D0310925C031092BC
:101230005F0310925E03109261031092600310929C
:101240006303109262038AE094E0909365038093B5
:101250006403109266031092670310926803109261
:101260006D0310926C0310926F0310926E038FEF58
:101270009FEF909371038093700390937303809317
:10128000720383E0809374031092750310927603C7
:1012900010927703109278031092F90380E8E9E73F
:1012A000F3E0DF011D928A95E9F71092FC0310929A
:1012B000FD031092FE031092FF031092000410929F
:1012C000010410920204109203041092040410927C
:1012D000050410920604109207041092080410925C
:1012E0000904EDEFF4E0108211821282138214825D
:1012F0003596B5E0E532FB07B1F785E894E00E944A
:10130000E3194EEE52E065E874E08DE094E00C9451
:101310005214CF92DF92EF92FF920F931F93CF93CD
:10132000DF93EC018B017A019FD1811133C0E1146D
:10133000F10439F0F70180819181081B190BC80F66
:10134000D91FC12CD12C0115110519F18091E8008C
:1013500085FD16C08091E8008E778093E80029D43F
:10136000E114F10449F0F70180819181C80ED91E82
:10137000D182C08285E00EC077D1882321F30AC0D4
:1013800089918093F10001501109FFEFCF1ADF0A14
:10139000DACF80E0DF91CF911F910F91FF90EF9016
:1013A000DF90CF900895CF92DF92EF92FF920F934C
:1013B0001F93CF93DF93EC018B017A0155D18111FB
:1013C00033C0E114F10439F0F70180819181081BE9
:1013D000190BC80FD91FC12CD12C0115110519F1FA
:1013E0008091E80085FD16C08091E8008B7780939E
:1013F000E800DFD3E114F10449F0F7018081918125
:10140000C80ED91ED182C08285E00EC02DD188239E
:1014100021F30AC08091F100899301501109FFEF77
:10142000CF1ADF0ADACF80E0DF91CF911F910F91C1
:10143000FF90EF90DF90CF9008952091EB053091D1
:10144000EC052617370748F06115710539F420912E
:10145000E8002E772093E80001C0B901FC0120E0EC
:101460006115710591F18091E405882309F440C06C
:10147000853009F43FC08091E80083FD3DC0809134
:10148000E80082FD2FC08091E80080FFE9CF209125
:10149000F3008091F20090E0922B6115710551F0FC
:1014A0008034910538F421912093F1006150710945
:1014B0000196F3CF21E08034910509F020E080917E
:1014C000E8008E778093E800CBCF2111CCCF0AC003
:1014D0008091E405882361F0853061F08091E80017
:1014E00083FD0AC08091E80082FFF2CF80E008957A
:1014F00082E0089583E0089581E008952091EB054E
:101500003091EC052617370748F06115710539F45D
:101510002091E8002E772093E80001C0B901FC017A
:1015200020E06115710599F18091E405882309F4A3
:1015300041C0853009F440C08091E80083FD3EC081
:101540008091E80082FD30C08091E80080FFE9CF03
:101550002091F3008091F20090E0922B61157105CB
:1015600059F08034910540F424912093F100319694
:10157000615071090196F2CF21E08034910509F0A4
:1015800020E08091E8008E778093E800CACF211197
:10159000CBCF0AC08091E405882361F0853061F0EB
:1015A0008091E80083FD0AC08091E80082FFF2CFBD
:1015B00080E0089582E0089583E0089581E0089531
:1015C000982F973068F59093E900981739F070914B
:1015D000EC002091ED005091F00003C0242F762FF5
:1015E00050E021FD02C09F5FECCF3091EB003E7FC9
:1015F0003093EB003091ED003D7F3093ED00309162
:10160000EB0031603093EB007093EC002093ED0021
:101610005093F0002091EE0027FDE5CF80E0089583
:101620008F708093E90081E008958091E50587FF40
:1016300011C08091E80082FD05C08091E405811110
:10164000F8CF11C08091E8008B770BC08091E40542
:10165000882349F08091E80080FFF8CF8091E8006E
:101660008E778093E80008952091E4003091E500A2
:1016700095E64091EC00842F817040FF23C080915B
:10168000E80080FD1DC08091E405882399F0853035
:1016900099F08091EB0085FD11C04091E4005091DC
:1016A000E5002417350729F3915011F09A01E1CF95
:1016B00084E0089582E0089583E0089581E008952C
:1016C00080E008954091E80042FFDDCF08950F9338
:1016D0001F93CF93DF934BD052D0C8EDD0E08881D9
:1016E0008F77888388818068888388818F7D8883CD
:1016F00019BC1092E4051092E0051092E2051092D8
:10170000E10500EE10E0F80180818B7F8083888105
:101710008160888342E360E080E052DFE1EEF0E048
:1017200080818E7F8083E2EEF0E080818160808323
:10173000808188608083F80180818E7F80838881AA
:1017400080618883DF91CF911F910F910895E8ED1B
:10175000F0E080818F7E8083E7EDF0E08081816022
:10176000808384E082BF81E08093E305B0CFE8ED21
:10177000F0E080818E7F80831092E20008951092C5
:10178000DA001092E10008951F920F920FB60F92A7
:1017900011242F933F934F935F936F937F938F9376
:1017A0009F93AF93BF93EF93FF938091E10082FFEC
:1017B0000AC08091E20082FF06C08091E1008B7F29
:1017C0008093E100F5D18091DA0080FF1DC0809107
:1017D000D80080FF19C08091DA008E7F8093DA00F4
:1017E0008091D90080FF0CC080E189BD82E189BD74
:1017F00009B400FEFDCF81E08093E405F4D104C07C
:1018000019BC1092E405F0D18091E10080FF18C06E
:101810008091E20080FF14C08091E2008E7F80936F
:10182000E2008091E20080618093E2008091D80024
:1018300080628093D80019BC85E08093E405B8D11C
:101840008091E10084FF2FC08091E20084FF2BC0D3
:1018500080E189BD82E189BD09B400FEFDCF8091A0
:10186000D8008F7D8093D8008091E1008F7E809397
:10187000E1008091E2008F7E8093E2008091E2009F
:1018800081608093E2008091E005882311F084E07C
:1018900007C08091E30087FD02C081E001C083E0C2
:1018A0008093E40585D18091E10083FF22C080917F
:1018B000E20083FF1EC08091E100877F8093E100FA
:1018C00082E08093E4051092E0058091E1008E7F34
:1018D0008093E1008091E2008E7F8093E20080910E
:1018E000E20080618093E20042E360E080E068DE35
:1018F0005FD1FF91EF91BF91AF919F918F917F91B8
:101900006F915F914F913F912F910F900FBE0F906C
:101910001F9018951F93CF93DF93CDB7DEB7AA978B
:101920000FB6F894DEBF0FBECDBFE5EEF5E08091B7
:10193000F100819325E0ED3EF207C9F75ED1809179
:10194000E80083FF1DC18091E5059091E605492FD0
:1019500050E04A30510508F013C1FA01EA59FF4F2F
:101960000C94D924803881F0823809F009C1809123
:10197000E9058F708093E9008091EB0085FB882753
:1019800080F91092E90006C08091E1059091E2058E
:10199000911182609091E800977F9093E800809386
:1019A000F1001092F100C4C0282F2D7F09F0E8C08B
:1019B000882319F0823061F0E3C08091E70581301F
:1019C00009F0DEC0933009F080E08093E2052BC07F
:1019D0008091E705811127C08091E9058F7009F496
:1019E000CFC08093E9002091EB0020FF1CC0933012
:1019F00021F48091EB00806214C09091EB00906123
:101A00009093EB0021E030E0A90102C0440F551F84
:101A10008A95E2F74093EA001092EA008091EB0089
:101A200088608093EB001092E9008091E800877F46
:101A300082C08111A5C01091E7051F778091E30056
:101A40008078812B8093E3008091E800877F8093EA
:101A5000E800EBDD8091E80080FFFCCF8091E3009F
:101A600080688093E300111102C082E001C083E02E
:101A70008093E40585C08058823008F081C0809151
:101A8000E7059091E8058C3D53E0950771F583E0FB
:101A90008A838AE289834FB7F894DE01139620E0A7
:101AA0003EE051E2E32FF0E050935700E49120FF35
:101AB00003C0E295EF703F5FEF708E2F90E0EA3049
:101AC00010F0C79601C0C0968D939D932F5F24316F
:101AD00049F74FBF8091E800877F8093E8006AE272
:101AE00070E0CE010196A9DC12C0AE014F5F5F4FDE
:101AF0006091E905DDD0BC01892B09F441C09091CA
:101B0000E800977F9093E80089819A81F7DC8091C3
:101B1000E8008B778093E80033C0803889F58091A6
:101B2000E800877F8093E8008091E0058093F100D2
:101B30008091E8008E778093E80077DD21C08111E5
:101B40001FC08091E7059091E80599270297C4F49A
:101B50008091E800877F8093E8008091E70580937B
:101B6000E00563DD8091E005811106C08091E3000E
:101B700087FD02C081E001C084E08093E40535D098
:101B80008091E80083FF0AC08091E800877F8093FE
:101B9000E8008091EB0080628093EB00AA960FB67C
:101BA000F894DEBF0FBECDBFDF91CF911F91089596
:101BB0000895CF938091E405882399F0C091E900BE
:101BC000CF709091EC00892F817090FD80E8C82B38
:101BD0001092E9008091E80083FD9CDECF70C093F5
:101BE000E900CF9108950895089542E361EC81E002
:101BF000E7DC42E360EC82E0E3CCCF93DF931F921B
:101C0000CDB7DEB78091E50586FF2BC087FF4CC0BE
:101C10009091E605903909F047C08F71A1F4809149
:101C2000E9059091EA05049709F03EC08091E8002B
:101C3000877F8093E8006091EB057091EC058EE062
:101C400091E05CDC21C0813079F58091E9059091CB
:101C5000EA05059749F58091E800877F8093E800C1
:101C600013C080FF21C09091E60587FF11C09A3014
:101C7000D9F419828091E800877F8093E80061E0C1
:101C800070E0CE010196D9DB8091E8008B770AC025
:101C90009B3051F48091E800877F8093E800809129
:101CA000E8008E778093E8000F90DF91CF91089540
:101CB000292F33272230310561F02330310571F0AF
:101CC0002130310509F04BC082E190E02EE133E094
:101CD0004AC080E690E02EEB32E045C09927823082
:101CE000910529F168F40097D1F0019709F037C008
:101CF000E4EBF1E0E4918E2F90E024EB31E033C08F
:101D00008430910521F1D8F08E3E910541F5E6EF42
:101D1000F1E0E4918E2F90E026EF31E024C0E2EF75
:101D2000F1E0E4918E2F90E022EF31E01CC0EAE573
:101D3000F1E0E4918E2F90E02AE531E014C0E6E373
:101D4000F1E0E4918E2F90E026E331E00CC0EAE070
:101D5000F2E0E4918E2F90E02AE032E004C080E0CF
:101D600090E020E030E0FA013183208308951F9253
:101D70000F920FB60F9211242F933F938F939F933F
:101D8000AF93BF938091330590913405A0913505B1
:101D9000B091360530913B0523E0230F2D3720F419
:101DA0000196A11DB11D05C026E8230F0296A11DB5
:101DB000B11D20933B058093330590933405A09388
:101DC0003505B09336058091370590913805A0917F
:101DD0003905B0913A050196A11DB11D80933705D3
:101DE00090933805A0933905B0933A05BF91AF9110
:101DF0009F918F913F912F910F900FBE0F901F9049
:101E000018952FB7F894609133057091340580913F
:101E10003505909136052FBF08953FB7F89480910E
:101E2000370590913805A0913905B0913A0526B54E
:101E3000A89B05C02F3F19F00196A11DB11D3FBF02
:101E4000BA2FA92F982F8827820F911DA11DB11D90
:101E5000BC01CD0142E0660F771F881F991F4A958C
:101E6000D1F708958F929F92AF92BF92CF92DF9257
:101E7000EF92FF926B017C01D0DF4B015C01C1143A
:101E8000D104E104F104F1F04BD1C7DFDC01CB0157
:101E900088199909AA09BB09883E9340A105B10593
:101EA00070F321E0C21AD108E108F10888EE880E2B
:101EB00083E0981EA11CB11CC114D104E104F104FB
:101EC00021F7DDCFFF90EF90DF90CF90BF90AF90E4
:101ED0009F908F900895789484B5826084BD84B576
:101EE000816084BD85B5826085BD85B5816085BD15
:101EF000EEE6F0E0808181608083E1E8F0E010822E
:101F0000808182608083808181608083E0E8F0E06E
:101F1000808181608083E1E9F0E08081826080835C
:101F2000808181608083E0E9F0E08081816080834E
:101F3000E1ECF0E080818460808380818260808336
:101F4000808181608083E3ECF0E080818160808328
:101F5000E0ECF0E0808182608083E2ECF0E0808160
:101F600081608083EAE7F0E0808184608083808103
:101F700082608083808181608083808180688083AB
:101F8000089590E0FC013197EF30F105B0F5E0598C
:101F9000FF4F0C94D924809180008F7703C08091EB
:101FA00080008F7D80938000089580918000877FDE
:101FB000F9CF84B58F7702C084B58F7D84BD089535
:101FC000809190008F7707C0809190008F7D03C033
:101FD00080919000877F8093900008958091C00049
:101FE0008F7703C08091C0008F7D8093C0000895DB
:101FF0008091C200877F8093C2000895CF93DF93C2
:1020000090E0FC01E55AFC4F2491FC01E658FC4F9E
:102010008491882361F190E0880F991FFC01EB54B3
:10202000FC4FC591D491FC01E955FC4FA591B491A9
:10203000611109C09FB7F894888120958223888315
:10204000EC912E230BC0623061F49FB7F894888125
:10205000322F309583238883EC912E2B2C939FBFB6
:1020600006C08FB7F894E8812E2B28838FBFDF91AD
:10207000CF9108951F93CF93DF93282F30E0F9017C
:10208000E45CFC4F8491F901E55AFC4FD491F901CD
:10209000E658FC4FC491CC23B9F0162F811171DFA3
:1020A000EC2FF0E0EE0FFF1FE955FC4FA591B49126
:1020B0009FB7F894111104C08C91D095D82302C019
:1020C000EC91DE2BDC939FBFDF91CF911F910895A0
:1020D000CF93DF93282F30E0F901E45CFC4F84912B
:1020E000F901E55AFC4FD491F901E658FC4FC4912F
:1020F000CC2389F0811145DFEC2FF0E0EE0FFF1FBC
:10210000E756FC4FA591B491EC91ED2381E090E06E
:1021100021F480E002C080E090E0DF91CF9108954B
:102120000895DC01EC91E651E63228F4F0E0E15646
:10213000FD4F8081089589E0089580913C058111CB
:1021400003C081E080933C0580913C0591E0980FAD
:1021500090933C0508950F931F93CF93DF93DB017A
:102160002C91213408F07DC0FA012081222309F44A
:1021700078C0EA018C01339680E4DF011D928A95D4
:10218000E9F78CE090E09A8389831882F8018081D6
:102190008B838181982F9F708C81807F892B8C838A
:1021A00091819295907F8F70892B8C83C6DF8D8370
:1021B00088E08E83D80114968C9114978295817053
:1021C0009F8180FB94F99F8314968C91149785FBD3
:1021D000882780F980FB95F99F8314968C9114973A
:1021E00086FB882780F980FB96F99F8314968C9153
:1021F000149787FB882780F980FB97F99F831596B2
:102200002C91159726952170888520FB81F9888768
:1022100015962C91159720FB80F9888715962C919F
:10222000159722FB222720F920FB82F98887159633
:102230002C91159723FB222720F920FB83F988870F
:1022400014968C91149783FB882780F980FB93F96F
:102250009F8314968C9182FB882780F980FB92F9EA
:102260009F83DF91CF911F910F910895CF93DF93BB
:10227000EB0128812134C0F4FA0120812223A1F04E
:10228000DB01BC01CA01039620E4EC0119922A95F6
:10229000E9F72C9130E03283218310824C9150E099
:1022A0000E94DF2481E001C080E0DF91CF9108959A
:1022B000CF93DF93EB01DA01FC01408150E048301D
:1022C000510508F03FC0FA01E158FF4F88810C9496
:1022D000D92415969C91159780FB94F915969C939B
:1022E00031C016969C91169780FB97F913C01796EC
:1022F0009C91179780FB97F905C017969C911797AB
:1023000080FB93F917969C931DC016969C91169787
:1023100080FB93F916969C9315C018969C9118977C
:1023200080FB97F905C018969C91189780FB93F94C
:1023300018969C9307C019969C91199780FB97F962
:1023400019969C93DF91CF91089580E008950895A8
:1023500080E0089581E00895FC0181850895FC01E5
:10236000848D08956E3524E0720799F0683387E014
:10237000780779F06F369EE0790759F06D302FE0DD
:10238000720739F0623385E1780719F0663C7442D0
:10239000A1F5413D22E0520791F14D3D82E0580701
:1023A00071F1433E92E0590751F14A3E22E0520753
:1023B00031F141308AE4580711F1493391E059076E
:1023C000F1F0463421E05207D1F047365105B9F01B
:1023D00043308AE0580799F0CA018F7D8A319445CD
:1023E00071F04A3284E5580751F081E04A309BE0B1
:1023F000590739F042315B4021F080E0089581E0D7
:1024000008950895EF92FF92CF93DF93DC01E701E7
:1024100053966C9353978B818370833009F58A812F
:10242000E82FEE1FEE27EE1FEF5FF0E09F01220F77
:10243000331FE20FF31FEA0FFB1F8F7082878C811F
:1024400083878E815B969C915B97981718F45B96B7
:102450008C935B9754968C9154978F5F54968C9382
:10246000DF91CF91FF90EF900895EF92FF920F933D
:102470000297C8DF0F91FF90EF900895CF93DF93FD
:10248000EC011C828D819E81DC011196ED91FC9105
:1024900012970480F581E02D6985019609951986CA
:1024A00081E08C8B1D8A1E8A1F8A188E1B8E1C8EC3
:1024B00060E870E083EC93E035D580E0DF91CF9168
:1024C00008953F924F925F926F927F928F929F9268
:1024D000AF92BF92CF92DF92EF92FF920F931F9332
:1024E000CF93DF9300D000D0CDB7DEB76C017C83F3
:1024F0006B835A8349834C0180E1880E911C5601FD
:10250000A7E0AA0EB11C11E084E0482E3601B2E12A
:102510006B0E711C93E0392E22E0522E8B819C8130
:10252000892B09F4EEC0F60180A1823059F128F41C
:10253000882341F0813071F0F1CF833039F184305C
:10254000C1F1ECCF54828581968190878783528632
:10255000518610A3AE014D5F5F4FBE016F5F7F4F8D
:10256000C5010E94A122882309F4CBC0D60115968B
:10257000ED91FC911697808191968C939197818132
:1025800092968C93F6017682658230A2D60192965D
:102590008C919297843011F493961C92F60181A14C
:1025A0008250848325813681308727838287818783
:1025B00040A2D60192968C918430A9F08530D1F159
:1025C000823009F062C0AE014D5F5F4FBE016F5FA8
:1025D0007F4FC5010E94A122882309F492C0F60111
:1025E000858984A386C0AE014D5F5F4FBE016F5FDA
:1025F0007F4FC5010E94A122882309F482C0D60121
:1026000098968C919897811174C093961C93939788
:1026100052968C91529796968C93969753968C914E
:10262000539797968C93979757968C915797959623
:102630008C935FC0AE014D5F5F4FBE016F5F7F4FF8
:10264000C5010E94A122882309F45BC0F60183A181
:10265000882309F44EC082819381009709F449C010
:10266000DC01ED91FC910190F081E02D7401D60127
:1026700095960C91959797962C91979796964C9145
:10268000969794966C91099534C0F60185858823B8
:1026900019F0813039F028C081A190E00297978726
:1026A000868715872B813C8189819A81782F692FB4
:1026B000F601468557854115510581F00196211592
:1026C000310529F41C821B8279836A830DC0415035
:1026D00051095787468721503109E8CF3C832B8326
:1026E0009A838983F6011586F60186859785892B5D
:1026F00041F4D60116969C928E92159790961C9254
:102700000DCF0F900F900F900F90DF91CF911F91F1
:102710000F91FF90EF90DF90CF90BF90AF909F9080
:102720008F907F906F905F904F903F900895882397
:1027300009F490C0833109F48DC0813009F48CC054
:10274000843109F489C0823009F488C0853109F4E4
:1027500085C0833009F484C0863109F481C0883093
:1027600009F480C0813209F47DC08A3209F47AC04C
:1027700099EE980F923008F475C08B3109F472C04D
:10278000873309F46FC0982F9F7E993009F46CC08D
:1027900095ED980F923008F467C08A3009F466C04E
:1027A0008D3209F463C08B3009F462C08E3209F4B3
:1027B0005FC08E3009F45EC0843209F45BC08F3292
:1027C00009F458C0883209F455C08F3009F454C058
:1027D000853209F451C0803309F44EC0893209F4BE
:1027E0004BC08C3009F44AC0823209F447C08133AF
:1027F00009F444C08D3009F443C0833209F440C069
:102800008233F1F18430F1F18E31E1F18530E1F183
:102810008D31D1F18630D1F18F31C1F18730C1F1E5
:102820008032B1F18333B1F18031A1F1863291F17F
:10283000843391F1813181F18A3171F1873261F113
:10284000853361F1823151F18C3141F1863341F1AF
:102850008FEF089580E0089581E0089582E0089563
:1028600083E0089584E0089585E0089586E0089562
:1028700087E0089588E0089589E008958AE0089542
:102880008BE008958CE008958DE008958EE0089522
:102890008FE0089580E1089581E1089582E108952F
:1028A00083E10895FC018FEC92E09183808389EEAF
:1028B00092E0938382837683658350874783118672
:1028C00081E0848B158A168A178A108E138E148ED7
:1028D000128688E083878CE384871586168684E0D9
:1028E0008787108A118A828B61157105B9F0DB0127
:1028F000A95ABF4F80E090E02D913D91232B51F4D8
:10290000880F991FDB01A80FB91FA95ABF4FED937C
:10291000FC93089501968031910571F708950F9306
:102920001F93CF93DF93EC018FA9873089F58BAD8F
:102930000D8D1E8D813061F486E2F9DE880F990BD2
:10294000FC01E858FB4F85919491082B192B0DC081
:1029500086E2EDDE880F990BFC01E858FB4F85916C
:10296000949180959095082319231E8F0D8F2D8D9E
:102970003E8D8F8D98A12817390709F48FC0809557
:102980009095822393239AA389A338A32F8F86C07F
:10299000803209F083C086E2CADE880F990BFC0101
:1029A000E858FB4F659174912CAD8BAD922F9F70C1
:1029B000482F4C7050E0542F4427550F550F592B7A
:1029C000982F907F492B922F907C592B082F0170C4
:1029D00010E0C801E3E0880F991FEA95E1F7842B26
:1029E000952B207330E0F4E035952795FA95E1F7C3
:1029F000822B932B2D8D3E8D62237323862B972B59
:102A00009E8F8D8F6DAD7EAD7CA76BA7FE01FF966F
:102A1000408151815EA74DA73296208131813CA330
:102A20002BA33296208131813EA32DA332962081A3
:102A3000318138A72FA33296208131813AA729A767
:102A40003696208121703DA9231711F0322F01C045
:102A500030E03EAB2DAB2F8D38A18217930741F0AC
:102A600020953095282339233AA329A398A38F8F43
:102A70006115710531F08FA598A9892B11F481E0BA
:102A80008BAB78AB6FA74115510531F089A99AA995
:102A9000892B11F481E08CAB5AAB49ABDF91CF911C
:102AA0001F910F910895AF92BF92CF92DF92EF9254
:102AB0000F931F93CF93DF9300D01F92CDB7DEB754
:102AC000DC015C962C91222309F449C06C0199D950
:102AD000F601058916892789308DDC01CB01801B21
:102AE000910BA20BB30BB7FD3AC08BD9D6015B9605
:102AF000EC90DC01CB018E0D911DA11DB11DF601E5
:102B0000858B968BA78BB08F818990E09A83898380
:102B10005601F7E3AF0EB11C85019E012F5F3F4FB9
:102B2000D60150964C91509719966C91199715961D
:102B30008D919C9116970E942C22811110C0D60174
:102B40001796ED91FC911897309739F089818B8316
:102B5000BE016D5F7F4FC5010995C601E0DE80E0D3
:102B60000F900F900F90DF91CF911F910F91EF90E9
:102B7000DF90CF90BF90AF9008950F931F93FC010B
:102B80009A018B01458561858581968100D61F91CB
:102B90000F9108950F931F93CF93C82F8B01282F68
:102BA00030E084E0359527958A95E1F780E3820F40
:102BB0008A3310F087E3820FB801B3D1CF7080E37E
:102BC0008C0F8A3310F087E38C0FB801CF911F91DF
:102BD0000F91A7C12F923F924F925F926F927F9277
:102BE0008F929F92AF92BF92CF92DF92EF92FF921D
:102BF0000F931F93CF93DF93CDB7DEB7EF970FB649
:102C0000F894DEBF0FBECDBF7C016EAF4FAF222E5A
:102C1000DC0119963C90332041F060E870E087E6D3
:102C200094E080D139ED332E62C1FC01A580B680DD
:102C30004501FFEF8F1A9F0AD5011196ED91FC9186
:102C400012970190F081E02D60E0C40109956C01BC
:102C5000009731F460E870E083E594E063D145C10A
:102C6000FC01408051804114510441F460E870E05F
:102C700082E494E057D127ED322E39C13701FAE0D2
:102C80006F0E711CDC0111967C926E9214962C9240
:102C90008E01065D1F4F22E130E040E060E0F70169
:102CA000858196810E94AF1E182FD6014D925C92AD
:102CB0008111FCC0EAA9FBA9FDAFECAF4CA85DA84F
:102CC000D701ED91FC910484F585E02DA2016CAD56
:102CD0007DADC7010995882309F4EEC0D501119691
:102CE000ED91FC9112970280F381E02D2FAD40E031
:102CF0006EADC4010995F7018187882309F4F2C0FC
:102D000099A99387282F40E060E0858196810E94F1
:102D1000561F182FD60114961C92D5011196ED91CD
:102D2000FC9112978823A1F00480F581E02DD70152
:102D300019966C91C4010995F701118660E870E05D
:102D400086E394E0EFD060E870E0812F23DFC8C015
:102D50000190F081E02DD70119966C91C40109957D
:102D6000009709F4C2C0FC012482930141E0D7011D
:102D700019966C91199715968D919C9116976DD314
:102D8000182F811195C08BAC60E870E082E394E06D
:102D9000C9D060E870E0882DFDDE60E870E08FE269
:102DA00094E0C0D0912C5701B2E0AB0EB11C6E0183
:102DB000E1E1CE0ED11C981479F189EC92E09A836E
:102DC0008983BC82AB821D821A861B861E86188A66
:102DD0001F8619A21AA21BA219A6DF82CE82D9864B
:102DE000C886DD86CC868E010F5F1F4F292D40E0FF
:102DF000D70119966C91199715968D919C911697FC
:102E0000FAD7182F811106C0F7018489833020F486
:102E10009394D1CFA0D055C0D70154964C915497DC
:102E2000433008F449C0930119966C91199715968F
:102E30008D919C91169711D3182F811139C068EC90
:102E400070E080E090E00ED8F7012389428561852B
:102E5000858196810E940822182F81112BC060E87D
:102E600070E08DE094E05ED068EC70E080E090E08F
:102E70000E94320FF701E958FF4F108285E08983E5
:102E800080E28A8301E00C831D8245E050E0BE01B0
:102E90006F5F7F4FC70171DE182F811112C0D701FC
:102EA00014960C9314975C960C9321C04AD009C0D9
:102EB0004DD007C055D005C0B2018CAD9DAD55D0E9
:102EC00011ED60E870E088EE93E02CD0812F57D0B0
:102ED000D701ED91FC910480F581E02DC7010995A2
:102EE000312E05C094ED392E02C086ED382E832D8B
:102EF000EF960FB6F894DEBF0FBECDBFDF91CF9136
:102F00001F910F91FF90EF90DF90CF90BF90AF9007
:102F10009F908F907F906F905F904F903F902F90F9
:102F2000089508952091860130918701261737076B
:102F30003CF0009729F0FC01849131968111FCCF7F
:102F4000089560E870E08EEE94E0ECCF60E870E009
:102F50008FED94E0E7CF60E870E084ED94E0E2CF9D
:102F600060E870E089EC94E0DDCF60E870E086EA2C
:102F700094E0D8DF60E870E08FE994E0D3CF60E8B8
:102F800070E08CE994E0CECFFC011082209A289A60
:102F900084B1866084B923982B9A8DB581608DBDEC
:102FA000209880E58CBD60E089E028D860E088E06A
:102FB00025D861E089E05ED861E088E05BD861E017
:102FC0008AE01CD861E08AE055D861E087E016D835
:102FD00061E087E04FC8CF93DF93C62FD42F60E026
:102FE0008AE048D8C260CEBD0DB407FEFDCFDEBD7D
:102FF0000DB407FEFDCF61E08AE0DF91CF913AC8C2
:103000000F931F93CF93DF93162F042FE90160E0F6
:103010008AE030D812601EBD0DB407FEFDCFFE0160
:10302000802F815030F091919EBD0DB407FEFDCFF1
:10303000F8CFC00FD11D61E08AE01CD8CE01DF912E
:10304000CF911F910F910895CF93C62F60E08AE032
:1030500011D8CEBD0DB407FEFDCF1EBC0DB407FECA
:10306000FDCFCEB561E08AE005D88C2FCF910895D1
:103070000F931F93CF93DF93062F142FE90160E086
:103080008AE00E943A100EBD0DB407FEFDCFFE018E
:10309000812F882341F01EBC0DB407FEFDCF9EB5E5
:1030A00091938150F6CFC10FD11D61E08AE00E945B
:1030B0003A10CE01DF91CF911F910F9108950F9398
:1030C0001F93CF93DF938C0140E268E784DF40E0F9
:1030D00068E7C80180DFC1E0D0E0209751F068E6E2
:1030E000C801B2DF9E012F5F3F4F80FD02C0E901A2
:1030F000F4CFCE01DF91CF911F910F910895CF931F
:10310000DF93EC0168EFA0DF807C8034D9F048F4D5
:10311000811124C041ED68EDCE015DDF10923D05C7
:103120001DC0803821F0803CC9F481E015C068EDF5
:10313000CE018ADF81FD0BC049EC68EDCE014BDF8B
:1031400082E00AC068EDCE017FDF81FDF5CF4BEC58
:1031500068EDCE0140DF83E080933D05DF91CF91A4
:103160000895CF93DF93EC014AE168E834DFCE01A4
:10317000A6DF41ED68EDCE012EDF40E660EDCE0129
:103180002ADF44E068EECE0126DF68EECE015CDF88
:1031900082FFFBCFCE01B3DF40E268ECCE011BDF44
:1031A00041E060E8CE0117DF80E0DF91CF91089524
:1031B0000F931F93CF938C0168EC46DF85FF04C00B
:1031C000C8019DDFC0E201C0C0E04C2F68ECC8011F
:1031D00002DF8C2FCF911F910F91089560EB34CFB8
:1031E0000F931F93CF938C0189E00E946810811187
:1031F00004C0C801DDDFC82F01C0C0E088E00E9424
:103200006810811102C0C801E9DF8C2FCF911F9196
:103210000F910895CF93DF93FC01862F8078A9F456
:10322000283008F04DC0442321F09581973009F4EF
:1032300047C0EF01A1E0B0E09D85992341F01196D0
:103240002596A031B105C1F73BC080E039C06111BE
:103250001CC085E08A9FE0018B9FD00D1124CE0F0A
:10326000DF1F442331F081E4888785818F5F858368
:1032700002C081E0888725E02A9FC0012B9F900D26
:103280001124E80FF91F80851BC06770660F660F59
:10329000660F442341F0606485818F5F858387706A
:1032A000687F682B03C02770687B622B25E02A9F0C
:1032B000C0012B9F900D1124E80FF91F6087862F06
:1032C000DF91CF910895611102C006960895FC0127
:1032D00021E03585631739F02F5F35962031C9F726
:1032E00080E090E00895069635E0239F800D911DC3
:1032F00011240895DF92EF92FF920F931F93CF93C3
:10330000DF93EC01E62EF12C85E0689FB0011124DB
:10331000FE01E60FF71F8085182F177086FF17C074
:1033200001E085E0D82EFE01D09EE00DF11D1124B4
:10333000808586958695869587701817F9F00F5FBA
:10334000003189F78D81811302C011501D8385E002
:103350008E9DF0018F9DF00D1124EC0FFD1F108646
:1033600081E0818712862296D783C683DF91CF9131
:103370001F910F91FF90EF90DF900895602FCE0185
:10338000B9DFD1CFFC01613499F49C01255B3F4F3B
:1033900061E0AC014E5F5F4F1586668717865487E4
:1033A00043873596E217F307B9F7FC0115820895B4
:1033B00021E03585631729F02F5F35962031C9F755
:1033C0000895622F97CFCF93DF93EC01DDDD81E28B
:1033D00093E09A8389831E82198681E08A871B86FF
:1033E000CE01039698878F831B8228E02C832CE3E1
:1033F0002D83FE019E01255B3F4F41E016864787E6
:10340000108A958784873596E217F307B9F7C9586C
:10341000DF4F188281E180934205DF91CF910895BB
:10342000CF93C42F01964FDF009789F0DC01ED9117
:10343000FC911197309759F013969C9180E0891771
:1034400031F020812C1731F033968F5FF8CF80E078
:1034500090E001C0CF01CF9108950F931F93CF93B8
:10346000DF932115310571F0E901042F162F019624
:103470002ADFFC01892B41F01283D183C0830383AF
:1034800080E003C088ED01C086EDDF91CF911F91F0
:103490000F9108958F929F92AF92BF92CF92DF9239
:1034A000EF92FF920F931F93CF93DF93EC01D62EF1
:1034B000C42E5901019607DF7C01009709F445C02D
:1034C000FC0180819181892B09F441C04C2D6D2D27
:1034D000CE01A6DFF501918380830097D1F1FC0135
:1034E00082818695869590E08031910514F08FE079
:1034F00090E041E050E060E070E04A015B0104C010
:10350000880C991CAA1CBB1C8A95D2F7D501C40152
:103510000197F801918380834D2D60EECE015BDD34
:1035200068EDCE0191DDF7019481992339F0FE0118
:10353000E958FF4F40814260482B02C0482F497F25
:1035400068EDCE0148DD80E005C086ED03C087ED63
:1035500001C08BEDDF91CF911F910F91FF90EF9004
:10356000DF90CF90BF90AF909F908F9008952F9253
:103570003F924F925F926F927F928F929F92AF9203
:10358000BF92CF92DF92EF92FF920F931F93CF9350
:10359000DF93CDB7DEB727970FB6F894DEBF0FBE27
:1035A000CDBF9F838E837B013A015901FB012180AE
:1035B0008FEF820D803408F070C00E94010F9B01D4
:1035C000AC0128573C4E4F4F5F4F29833A834B83C2
:1035D0005C83F701828180FD02C040E401C040E8C5
:1035E00068EE8E819F81F7DC512C312CA114B1043F
:1035F00009F43EC06101A214B30408F46501CD8250
:1036000098014C2D60E18E819F81FADC4C2D68E39E
:103610008E819F81E0DCF7014081406260EF8E8106
:103620009F81D9DC68EC8E819F810EDD87FFFACF08
:1036300040E868EC8E819F81CEDC68EF8E819F81AF
:1036400003DD8F70582E812C912C412C552009F4CC
:1036500080C00E94010FDC01CB0129813A814B819E
:103660005C81821B930BA40BB50BB7FF72C017C014
:10367000552029F040E068E38E819F81ACDC68EF43
:103680008E819F81E1DC85FB882780F9F70192819B
:1036900080FB90F99283852D61C08AED5FC0F6E0D2
:1036A0005F1240C068EF8E819F81CEDC85FB88274A
:1036B00080F951E08527F701928180FB90F9928390
:1036C00090FD02C040E401C040E868EE8E819F8119
:1036D00082DC40E068E38E819F817DDCF8014081DF
:1036E00060E18E819F8177DC4D8168E38E819F81CF
:1036F00072DCF7014081406260EF8E819F816BDC5C
:1037000068EC8E819F81A0DC87FFFACF40E868ECEF
:103710008E819F8160DC68EF8E819F8195DC8F7048
:10372000582E94CF2EE0521205C0439443E0441229
:10373000D0CFA0CF34E053129DCF3FEF831A930A2E
:103740006114710409F4C5CF8614970409F0C1CF40
:1037500091CFAC18BD080C0D1D1D48CF27960FB694
:10376000F894DEBF0FBECDBFDF91CF911F910F91B7
:10377000FF90EF90DF90CF90BF90AF909F908F9091
:103780007F906F905F904F903F902F900895AF92F1
:10379000BF92CF92DF92EF92FF920F931F93CF933E
:1037A000DF9300D000D0CDB7DEB77C0169015801AE
:1037B0001C821B821A8219828E010F5F1F4F9E018D
:1037C0002D5F3F4F67DE811108C049815A816B81AF
:1037D0007C8185019601C701CADE0F900F900F9082
:1037E0000F90DF91CF911F910F91FF90EF90DF909D
:1037F000CF90BF90AF9008956F927F928F929F92DB
:10380000AF92BF92CF92DF92EF92FF920F931F93EE
:10381000CF93DF938C01662E742E69010E94010FF5
:103820004B015C0128E8820E23E1921EA11CB11C11
:10383000C0E0E12CF12CD0E076280E94010FDC01E1
:10384000CB0188199909AA09BB09B7FF2EC0472DDA
:1038500060EFC801C0DB0E94010FDC01CB018819B9
:103860009909AA09BB09B7FF09C068ECC801ECDBDC
:1038700087FFF1CF40E868ECC801ADDB68EFC80115
:10388000E3DBC82FCF70C43019F0CE3059F00DC033
:103890008FEFE81AF80AC114D10479F2EC14FD0490
:1038A00061F603C0DF5FD33041F68C2FDF91CF91FB
:1038B0001F910F91FF90EF90DF90CF90BF90AF904E
:1038C0009F908F907F906F9008952F923F924F928C
:1038D0005F926F927F928F929F92AF92BF92CF92A0
:1038E000DF92EF92FF920F931F93CF93DF93CDB7A9
:1038F000DEB727970FB6F894DEBF0FBECDBF9F830C
:103900008E836B015C834B835901E982F901E0806E
:10391000F180FB01F181FA83F90111821082FB0130
:10392000828181FD02C040E101C040E268EE8E81EB
:103930009F8151DBF9814F2E512C612C712CED822E
:103940002B813C81F601408160E08E819F8154DFB4
:10395000382EF6E08F1317C068EF8E819F8174DBDD
:103960008295817091E08927F601928180FB91F91F
:10397000928391FD02C040E101C040E268EE8E8179
:103980009F8129DBDDCF81114FC068EC8E819F8143
:103990005BDB82FF47C060E38E819F8155DB282E71
:1039A00090E0E816F90608F42D80F50180819181F8
:1039B000A701481B590B57FF02C040E050E0822C82
:1039C000912C841695060CF4A401980168E08E8170
:1039D0009F814EDB8C0144E068EC8E819F81FBDA95
:1039E000F50180819181880E991E91828082FA81F1
:1039F0002F1618F08E149F0460F068EF8E819F815F
:103A000023DB82958170F601928180FB91F992838C
:103A10000BC0F981FF2309F493CFC301B2010E94C7
:103A2000320F8ECF80EF382E832D27960FB6F89465
:103A3000DEBF0FBECDBFDF91CF911F910F91FF90E1
:103A4000EF90DF90CF90BF90AF909F908F907F903E
:103A50006F905F904F903F902F9008952F923F92DC
:103A60004F925F926F927F928F929F92AF92BF928E
:103A7000CF92DF92EF92FF920F931F93CF93DF933A
:103A8000CDB7DEB761970FB6F894DEBF0FBECDBFDE
:103A90003C01F42E322E202EC98A4EA05FA0C8A46D
:103AA000D9A4188A1F861E861D868E01035F1F4FAC
:103AB0009E01215F3F4FEEDC811192C039822A8244
:103AC000EB8289898C83BE82AD8298868F829E012B
:103AD0002F5F3F4F48E060E2C30192DA2D853E85BB
:103AE0004F2D60E1C30188DEE82E811175C0932D52
:103AF0009078392EC114D10409F460C0EF85F8899B
:103B00008281992309F44CC082608283540122246B
:103B10002394A114B10409F456C05C864B864D85EC
:103B20005E856F857889E12C86019E01255F3F4F78
:103B3000C301CBDEE82EA6E08A130FC00F851889DB
:103B400068EFC30181DA85FB882780F98225F801B7
:103B5000928180FB91F99283DCCF81113DC08AA5CF
:103B60009BA50097A1F0DC01ED91FC9111970190CC
:103B7000F081E02DC4018A199B099A8789876B859A
:103B80007C859E01275F3F4FA601CD0109958B855E
:103B90009C85A81AB90A8415950508F0BACF0EC0FD
:103BA000816082834D855E8586019201BF01C301DC
:103BB000DEDC811115C02D853E8510C02D853E852A
:103BC000311005C00BC0E11007C02D853E8560EAAD
:103BD0004F2DC30111DE04C08E2D02C060E8F8CF66
:103BE00061960FB6F894DEBF0FBECDBFDF91CF91C7
:103BF0001F910F91FF90EF90DF90CF90BF90AF900B
:103C00009F908F907F906F905F904F903F902F90FC
:103C100008957F928F929F92AF92BF92CF92DF9240
:103C2000EF92FF920F931F93CF93DF93882E192F5C
:103C3000D42F922E702E00E0E82EF92EE60EF11C05
:103C4000E60EF11C27E5E20EF11C5701840F911DD1
:103C5000840F911D6C01A7E5CA0ED11CF70180816C
:103C60009181DC01ED91FC910280F381E02D272D03
:103C7000492D6D2F0995803ED1F4D1110CC041E042
:103C800068EE882D912FA7D966E670E080E090E07D
:103C90000E94320F14C0F60180819181DC01ED9108
:103CA000FC910284F385E02D692D099508C08D30C3
:103CB00021F4033008F042C014C0811142C0F50164
:103CC00080819181DC01ED91FC910190F081E02DEA
:103CD000272D492D6D2F0995C82F8D3051F40330B4
:103CE00050F464E670E080E090E00E94320F0F5FD5
:103CF000B5CF882329F1D1110CC041E068EE882DA1
:103D0000912F69D966E670E080E090E00E94320F62
:103D100013C0882D912F8D0F911D8D0F911DFC01CA
:103D2000E95AFF4F80819181DC01ED91FC91028481
:103D3000F385E02D692D09958C2F03C08DE001C01E
:103D400080E0DF91CF911F910F91FF90EF90DF9076
:103D5000CF90BF90AF909F908F907F9008958F925B
:103D60009F92AF92BF92CF92EF920F931F931F92A9
:103D70001F921F930F933F932F934901A12CB12CB6
:103D8000CC24C394E12C06E020E868DE0F900F906D
:103D90000F900F900F900F901F910F91EF90CF9079
:103DA000BF90AF909F908F9008958F929F92AF9207
:103DB000BF92CF92EF92FF920F931F921F92FF92AA
:103DC000EF923F932F934901A12CB12C22E0C22EF8
:103DD000E02E06E020E842DE0F900F900F900F904B
:103DE0000F900F900F91FF90EF90CF90BF90AF90FA
:103DF0009F908F9008954F925F926F927F928F92D3
:103E00009F92AF92BF92CF92DF92EF92FF920F9369
:103E10001F93CF93DF93CDB7DEB7C054D1090FB650
:103E2000F894DEBF0FBECDBF3C01D62E542E422EDD
:103E3000C02ECE0101965C017C01022F29E030E00A
:103E4000C301B3DF81111AC08B809C801F93CF9276
:103E5000BF92AF921F9280E48F93A12CB12C82E08D
:103E6000C82EE42C06E020E8452D6D2DC301F6DDBB
:103E70000F900F900F900F900F900F90C05CDF4F3E
:103E80000FB6F894DEBF0FBECDBFDF91CF911F916B
:103E90000F91FF90EF90DF90CF90BF90AF909F90E9
:103EA0008F907F906F905F904F9008958F929F9228
:103EB000AF92BF92CF92EF920F93CF931F921F9228
:103EC0001F921F921F921F92812C912CA12CB12C1A
:103ED000C12CE22E05E020E0C1DDC82F6CE271E0CC
:103EE00080E090E00E94320F0F900F900F900F90A3
:103EF0000F900F908C2FCF910F91EF90CF90BF909C
:103F0000AF909F908F900895EF92FF920F931F9321
:103F1000CF93DF937C013FEFE31AF30A893FAFEFC2
:103F20009A0711F486ED2AC0DC011796ED91FC91F9
:103F30001897EF2BF1F0022F242FEC010B8740E0B4
:103F4000C70168D9182F8823B1F0682FC701BBD9E2
:103F5000009741F3FC010483212F40E060E0CE0193
:103F6000A5DFC82F882349F0612FC7010BDA8C2FFA
:103F700005C087ED03C084ED01C080E0DF91CF91E3
:103F80001F910F91FF90EF9008952F923F924F92C3
:103F90005F926F927F928F929F92AF92BF92CF92D9
:103FA000DF92EF92FF920F931F93CF93DF93CDB7E2
:103FB000DEB7C659D1090FB6F894DEBF0FBECDBF2C
:103FC0007C01562E442E322E1F924F931F926F93D8
:103FD0008BEE92E09F938F931F9280E88F938E01D8
:103FE0000F5F1F4F1F930F93F3D45E0183E9A80E59
:103FF000B11CD5011C9288E011968C9311978CE32B
:1040000012968C93D7011796ED91FC9118978081A9
:104010001F928F9381E193E09F938F931F9280E48F
:104020008F931F930F93D4D40FB6F894DEBF0FBEB7
:10403000CDBFF9EFEF16FFEFFF0609F475C0D7010A
:104040001796CD90DC9018971896BC92AE92179761
:104050001B963C9200581F4F22E130E040E060E0A8
:10406000C7017DDEF701D086C7828111C1C0C75765
:10407000DF4F88809980C958D040C557DF4F68808E
:104080007980CB58D040CB57DF4FF881C558D0400E
:10409000CA56DF4FF883C659D040CA57DF4F288031
:1040A000C658D040670187E5C80ED11C560110E004
:1040B000D5018D919C91009709F441C0DC01ED91EF
:1040C000FC910084F185E02D0995811138C0F5013E
:1040D00080819181DC01ED91FC910088F189E02DD6
:1040E000622D0995882359F1F50180819181DC01C8
:1040F000ED91FC910484F585E02DA301B4010995AF
:10410000811114C0F50180819181DC01ED91FC9158
:104110000684F785E02DCA56DF4F6881C659D04026
:104120000995811103C00BC086ED62C0032D242DBB
:10413000452D612FC7016DDD813D09F059C01F5F1D
:10414000B2E0AB0EB11C103109F0B2CF10E0F601B5
:1041500080819181009709F43FC0DC01ED91FC91D1
:104160000084F185E02D0995811136C0F60180812A
:104170009181DC01ED91FC910088F189E02D622DA7
:1041800009958823F9F0F60180819181DC01ED9198
:10419000FC910484F585E02DA301B40109958111FA
:1041A0001BC0F60180819181DC01ED91FC910684B8
:1041B000F785E02DCA56DF4F6881C659D040099572
:1041C00081110AC0032D242D452D612FC70121DD4A
:1041D000982F977F913D61F41F5FE2E0CE0ED11CD6
:1041E000103109F0B4CF232D442D652DC7018CDE8D
:1041F000CA56DF4F0FB6F894DEBF0FBECDBFDF91BA
:10420000CF911F910F91FF90EF90DF90CF90BF90D3
:10421000AF909F908F907F906F905F904F903F9066
:104220002F900895AF92BF92CF92DF92EF92FF92BC
:104230001F93CF93DF93EC010E94F01880913D050E
:10424000813039F040F0823079F0833039F511E077
:104250000CC083E106C080914205807F8031F1F07F
:1042600081E1809342051AC010E080914205807F71
:104270008031A9F40E94010FDC01CB0188539F4FCC
:10428000AF4FBF4F80933E0590933F05A0934005ED
:10429000B093410580E28093420501C010E07E01A9
:1042A00087E5E80EF11C6E01A7E7CA0ED11C570185
:1042B000F501819191915F01009739F0DC01ED9159
:1042C000FC910680F781E02D0995AC14BD0481F7BF
:1042D00080914205803409F443C050F4803221F1CA
:1042E0008033B9F1813109F089C0F60110820AC02A
:1042F000813509F460C0803809F472C0803509F056
:104300007DC040C0D7018D919D917D01009739F00E
:10431000DC01ED91FC910480F581E02D0995EC1410
:10432000FD0481F782E168C00E94010FC0903E0544
:10433000D0903F05E0904005F0904105DC01CB01B5
:104340008C199D09AE09BF09B7FD58C080E3809361
:10435000420541E068EECE010E94EB1780E44CC0BC
:1043600068EECE010E94241880FD48C068EDCE01A1
:104370000E942418482F486068EDCE010E94EB1778
:1043800080E53AC068ECCE010E94241886FF36C052
:1043900081E5809342050E94010FDC01CB01449628
:1043A000A11DB11D80933E0590933F05A09340054C
:1043B000B093410523C00E94010FC0903E05D090EC
:1043C0003F05E0904005F0904105DC01CB018C19E0
:1043D0009D09AE09BF09B7FD11C080E88093420571
:1043E000212F40E060E0CE01D0DD882321F0823D26
:1043F00029F080EA01C080E980934205DF91CF91E6
:104400001F91FF90EF90DF90CF90BF90AF900895F5
:104410008F929F92AF92BF92CF92EF920F931F9283
:104420001F921F921F921F921F92812C912CA12CE0
:10443000B12CC12CE22E09E020E010DB0F900F9090
:104440000F900F900F900F900F91EF90CF90BF9023
:10445000AF909F908F9008957F928F929F92AF928E
:10446000BF92CF92DF92EF92FF920F931F93CF9361
:10447000DF9300D000D0CDB7DEB76C01762EF42EDE
:10448000590148011C821B821A8219828E010F5F1A
:104490001F4F9E012D5F3F4F0E944A1A182F8823FD
:1044A000A1F161E870E088E495E00E94921761E86C
:1044B00070E0812F0E94CA1561E870E085E495E004
:1044C0000E94921761E870E083E295E00E949217E3
:1044D00061E870E0872D0E94CA1561E870E080E213
:1044E00095E00E94921761E870E080E095E00E94FC
:1044F000921761E870E08F2D0E94CA1561E870E0A4
:104500008DEF94E00E94921709C049815A816B8116
:104510007C8184019501C601D8D9182F812F0F9075
:104520000F900F900F90DF91CF911F910F91FF90FF
:10453000EF90DF90CF90BF90AF909F908F907F9043
:104540000895CF93DF93FC01EB0180819181892B4A
:1045500039F560E870E08DE695E00E94921724C07E
:10456000DA012D913C91232BF9F0A881B9819C911E
:10457000A381B0E0A81BB10920813181A20FB31F34
:104580009C93828181508283DA018D919C91119755
:1045900001978D939C938881998101969983888353
:1045A00082818111DDCF02C080E003C083818283DC
:1045B00081E0DF91CF9108951F920F920FB60F9275
:1045C00011242F938F939F93EF93FF93E0915305C3
:1045D000F09154058081E0915905F0915A0582FDD2
:1045E00012C0908180915C058F5F8F7320915D0573
:1045F000821751F0E0915C05F0E0ED5BFA4F958F8A
:1046000080935C0501C08081FF91EF919F918F9114
:104610002F910F900FBE0F901F9018951F920F9221
:104620000FB60F9211242F933F934F935F936F9385
:104630007F938F939F93AF93BF93EF93FF9383E405
:1046400095E0A5D0FF91EF91BF91AF919F918F9190
:104650007F916F915F914F913F912F910F900FBE7E
:104660000F901F901895E3E4F5E01382128288EE14
:1046700093E0A0E0B0E084839583A683B7838BE2C8
:1046800093E0918380838DEC90E0958784878CEC18
:1046900090E09787868788EC90E0918B808B89ECFF
:1046A00090E0938B828B8AEC90E0958B848B8EECE0
:1046B00090E0978B868B118E128E138E148E089538
:1046C000CF92DF92EF92FF920F931F93CF93DF93DE
:1046D0006C017A018B01C0E0D0E0CE15DF0581F0DE
:1046E000D8016D918D01D601ED91FC910190F08181
:1046F000E02DC6010995892B11F02196EECF7E01A0
:10470000C701DF91CF911F910F91FF90EF90DF9044
:10471000CF900895FC01918D228D892F90E0805CCF
:104720009F4F821B91098F7399270895FC01918DEA
:10473000828D981731F0828DE80FF11D858D90E004
:1047400008958FEF9FEF0895FC01918D828D98174A
:1047500061F0828DDF01A80FB11D5D968C91928D65
:104760009F5F9F73928F90E008958FEF9FEF089562
:10477000FC01538D448D252F30E0842F90E0821B67
:10478000930B541710F0CF96089501970895FC01EC
:10479000848DDF01A80FB11DA35ABF4F2C91848DCA
:1047A00090E001968F739927848FA689B7892C93FF
:1047B000A089B1898C9182748C93938D848D981388
:1047C00006C00288F389E02D80818F7D8083089563
:1047D000CF93DF93EC01888D8823C1F0EA89FB89B0
:1047E000808185FD05C0A889B9898C9186FD0EC0A0
:1047F0000FB607FCF5CF808185FFF2CFA889B98974
:104800008C9185FFEDCFCE01C2DFE8CFDF91CF9154
:104810000895EF92FF920F931F93CF93DF93EC01D4
:1048200081E0888F9B8D8C8D981305C0E889F9896C
:10483000808185FD25C0F62E0B8D10E00F5F1F4F88
:104840000F731127E02E8C8DE8120BC00FB607FCFA
:10485000FACFE889F989808185FFF5CFCE0197DF0E
:10486000F2CF8B8DFE01E80FF11DE35AFF4FF0826E
:104870009FB7F8940B8FEA89FB898081806209C019
:104880009FB7F894EE89FF896083E889F989808170
:10489000827480839FBF81E090E0DF91CF911F9170
:1048A0000F91FF90EF900895CF92DF92EF92FF92D9
:1048B0001F93CF93DF93EC016A017B01122FE889EC
:1048C000F98982E080834115514E61057105A9F097
:1048D00060E079E08DE390E0A701960148D0DA012D
:1048E000C9010197A109B109B695A7959795879533
:1048F0009C01211580E13807A0F0E889F989108230
:1049000060E874E88EE190E0A701960130D0DA010A
:10491000C9010197A109B109B695A7959795879502
:104920009C01EC85FD853083EE85FF852083188E04
:10493000EC89FD891083EA89FB898081806180830D
:10494000EA89FB89808188608083EA89FB8980818C
:1049500080688083EA89FB8980818F7D8083DF91F5
:10496000CF911F91FF90EF90DF90CF900895A1E23B
:104970001A2EAA1BBB1BFD010DC0AA1FBB1FEE1FD9
:10498000FF1FA217B307E407F50720F0A21BB30B24
:10499000E40BF50B661F771F881F991F1A9469F7A0
:1049A00060957095809590959B01AC01BD01CF01FC
:1049B0000895EE0FFF1F0590F491E02D0994FB017F
:1049C000DC0102C001900D9241505040D8F708958B
:1049D000AEE0B0E0EDEEF4E2B8C20D891E898F8939
:1049E000988D26E02C831A83098397FF02C080E00C
:1049F00090E801979E838D83AE01455E5F4F698D80
:104A00007A8DCE01019611D04D815E8157FD0AC08D
:104A10002F813885421753070CF49A01F801E20FF1
:104A2000F31F10822E96E4E0ACC2ABE0B0E0EAE106
:104A3000F5E27DC26C017B018A01FC0117821682BE
:104A4000838181FFBFC1CE0101963C01F6019381B4
:104A5000F70193FD859193FF81917F01882309F4EC
:104A6000ADC1853239F493FD859193FF81917F012A
:104A7000853221F4B60190E0C0D1E8CF912C212CF1
:104A8000312CFFE1F315D8F08B3279F038F4803215
:104A900079F08332A1F4232D20611DC08D3261F0A5
:104AA000803369F4232D216016C0832D8260382E57
:104AB000E32DE4603E2E2AC0F32DF8601DC037FCC4
:104AC0002DC020ED280F2A3040F08E32B9F436FC8C
:104AD00075C1232D2064322E19C036FE06C08AE02F
:104AE000989E200D1124922E11C0EAE02E9E200DDA
:104AF0001124222EF32DF0623F2E08C08C3621F4B3
:104B0000832D8068382E02C0883641F4F70193FD6A
:104B1000859193FF81917F018111B3CF982F9F7D64
:104B20009554933028F40C5F1F4F9FE399830DC079
:104B3000833631F0833771F0833509F055C020C0DA
:104B4000F801808189830E5F1F4F88248394912C04
:104B5000530112C02801F2E04F0E511CF801A08051
:104B6000B18036FE03C0692D70E002C06FEF7FEFA9
:104B7000C50138D14C018201F32DFF773F2E15C0BE
:104B8000280122E0420E511CF801A080B18036FEBF
:104B900003C0692D70E002C06FEF7FEFC50117D130
:104BA0004C01F32DF0683F2E820133FC19C0822D99
:104BB00090E088169906A0F4B60180E290E01DD13D
:104BC0002A94F5CFF50137FC859137FE81915F017D
:104BD000B60190E012D121102A9421E0821A9108A6
:104BE0008114910479F7E1C0843611F0893639F5E2
:104BF000F80137FE07C060817181828193810C5F6B
:104C00001F4F08C060817181072E000C880B990B23
:104C10000E5F1F4FF32DFF763F2E97FF09C0909533
:104C20008095709561957F4F8F4F9F4FF0683F2E15
:104C30002AE030E0A3011DD1882E861844C08537B4
:104C400031F4232D2F7EB22E2AE030E025C0932DA3
:104C5000997FB92E8F36C1F018F4883579F0AEC03F
:104C6000803719F0883721F0A9C0E92FE061BE2E06
:104C7000B4FE0DC0FB2DF460BF2E09C034FE0AC087
:104C8000292F2660B22E06C028E030E005C020E1C2
:104C900030E002C020E132E0F801B7FE07C06081D9
:104CA0007181828193810C5F1F4F06C06081718189
:104CB00080E090E00E5F1F4FA301DBD0882E8618A6
:104CC000FB2DFF773F2E36FE0DC0232D2E7FA22E0B
:104CD000891458F434FE0BC032FC09C0832D8E7E3B
:104CE000A82E05C0B82CA32C03C0B82C01C0B92C29
:104CF000A4FE0FC0FE01E80DF11D8081803321F478
:104D00009A2D997EA92E09C0A2FE06C0B394B39431
:104D100004C08A2D867809F0B394A3FC10C0A0FECD
:104D200006C0B21480F4280C922C9B180DC0B2144B
:104D300058F4B60180E290E060D0B394F8CFB2149A
:104D400018F42B1802C0982C212CA4FE0FC0B60119
:104D500080E390E052D0A2FE16C0A1FC03C088E719
:104D600090E002C088E590E0B6010CC08A2D8678FC
:104D700051F0A1FE02C08BE201C080E2A7FC8DE2EF
:104D8000B60190E03AD0891430F4B60180E390E0A7
:104D900034D09A94F8CF8A94F301E80DF11D808104
:104DA000B60190E02AD08110F6CF222009F44ECE31
:104DB000B60180E290E021D02A94F7CFF6018681F7
:104DC000978102C08FEF9FEF2B96E2E1CCC0FC01F0
:104DD0000590615070400110D8F7809590958E0F26
:104DE0009F1F0895FC016150704001900110D8F799
:104DF000809590958E0F9F1F08950F931F93CF93CB
:104E0000DF93FB01238121FD03C08FEF9FEF2CC0B7
:104E100022FF16C0468157812481358142175307EE
:104E200044F4A081B1819D012F5F3F4F31832083E6
:104E30008C93268137812F5F3F4F3783268314C0A1
:104E40008B01EC01FB010084F185E02D0995892B94
:104E5000E1F6D80116968D919C91179701961796B9
:104E60009C938E931697CE01DF91CF911F910F9156
:104E70000895FA01AA27283051F1203181F1E894F0
:104E80006F936E7F6E5F7F4F8F4F9F4FAF4FB1E03D
:104E90003ED0B4E03CD0670F781F891F9A1FA11D38
:104EA000680F791F8A1F911DA11D6A0F711D811D39
:104EB000911DA11D20D009F468943F912AE0269FFE
:104EC00011243019305D3193DEF6CF010895462F5D
:104ED0004770405D4193B3E00FD0C9F7F6CF462F3E
:104EE0004F70405D4A3318F0495D31FD40524193A7
:104EF00002D0A9F7EACFB4E0A69597958795779564
:104F00006795BA95C9F700976105710508959B01EA
:104F1000AC010A2E06945795479537952795BA9573
:104F2000C9F7620F731F841F951FA01D08952F924C
:104F30003F924F925F926F927F928F929F92AF9229
:104F4000BF92CF92DF92EF92FF920F931F93CF9376
:104F5000DF93CDB7DEB7CA1BDB0B0FB6F894DEBF0D
:104F60000FBECDBF09942A88398848885F846E8433
:104F70007D848C849B84AA84B984C884DF80EE807D
:104F8000FD800C811B81AA81B981CE0FD11D0FB686
:104F9000F894DEBF0FBECDBFED010895F894FFCFAA
:104FA0000100000000000000000000000000000000
:104FB00000000000000000000000000000000000F1
:104FC00000000000000000000000000000000000E1
:104FD00000000000000000000000000000000000D1
:104FE00000000001000000000000000000000000C0
:104FF00000000000000000000000000000000000B1
:1050000000000000000000000000000000000000A0
:105010000000000000000000000000000000000090
:105020000000000000008000403F0240FF0140BF40
:1050300001209F0108970104A00100C501000004A0
:10504000B00117AE011700200A0001001400000093
:10505000000000000000000000000000000000044C
:10506000A001BA00746E74726F6C6C657203932841
:105070001806E0CC854B92710A10DBAB7E07E71F68
:10508000F3B88673E940A9F82F21263ACFB756FF27
:105090007697FD9B8145AD45B645BBA526D6010457
:1050A000A001BA003A17004D61644361747A2E582A
:1050B000626F782E4472756D732E476C616D270098
:1050C00057696E646F77732E58626F782E496E70D1
:1050D00075742E4E617669676174696F6E436F04F3
:1050E000F0013AC5011000010000000000000000BE
:1050F000000000C5009D0016001B001C00230029B5
:10510000006C000000000000000000010100000031
:10511000000601020304060705010405060A02024F
:1051200020011C7EED828BEC970000380762420163
:10513000000000E60000000002010001000100057F
:1051400009090906090909090909090909000901E3
:1051500009010905040903060902070906070609EA
:10516000070907090600000000611200000000EABC
:1051700015A5113E125315AC11A711B211A811AA11
:1051800011AF110212FEFF00003512436F6E666907
:10519000677572696E673A20706172656E74203D42
:1051A0002025692C20706F7274203D2025690D0A1E
:1051B00000616464723A2025303278680000000093
:1051C0000063190A19C2190000000009246023B8FD
:0A51D00023E8238A23A4239623007A
:00000001FF
